{
  "contractName": "GameItems",
  "abi": [
    {
      "inputs": [],
      "stateMutability": "nonpayable",
      "type": "constructor"
    },
    {
      "anonymous": false,
      "inputs": [
        {
          "indexed": true,
          "internalType": "address",
          "name": "account",
          "type": "address"
        },
        {
          "indexed": true,
          "internalType": "address",
          "name": "operator",
          "type": "address"
        },
        {
          "indexed": false,
          "internalType": "bool",
          "name": "approved",
          "type": "bool"
        }
      ],
      "name": "ApprovalForAll",
      "type": "event"
    },
    {
      "anonymous": false,
      "inputs": [
        {
          "indexed": true,
          "internalType": "address",
          "name": "operator",
          "type": "address"
        },
        {
          "indexed": true,
          "internalType": "address",
          "name": "from",
          "type": "address"
        },
        {
          "indexed": true,
          "internalType": "address",
          "name": "to",
          "type": "address"
        },
        {
          "indexed": false,
          "internalType": "uint256[]",
          "name": "ids",
          "type": "uint256[]"
        },
        {
          "indexed": false,
          "internalType": "uint256[]",
          "name": "values",
          "type": "uint256[]"
        }
      ],
      "name": "TransferBatch",
      "type": "event"
    },
    {
      "anonymous": false,
      "inputs": [
        {
          "indexed": true,
          "internalType": "address",
          "name": "operator",
          "type": "address"
        },
        {
          "indexed": true,
          "internalType": "address",
          "name": "from",
          "type": "address"
        },
        {
          "indexed": true,
          "internalType": "address",
          "name": "to",
          "type": "address"
        },
        {
          "indexed": false,
          "internalType": "uint256",
          "name": "id",
          "type": "uint256"
        },
        {
          "indexed": false,
          "internalType": "uint256",
          "name": "value",
          "type": "uint256"
        }
      ],
      "name": "TransferSingle",
      "type": "event"
    },
    {
      "anonymous": false,
      "inputs": [
        {
          "indexed": false,
          "internalType": "string",
          "name": "value",
          "type": "string"
        },
        {
          "indexed": true,
          "internalType": "uint256",
          "name": "id",
          "type": "uint256"
        }
      ],
      "name": "URI",
      "type": "event"
    },
    {
      "inputs": [
        {
          "internalType": "address",
          "name": "account",
          "type": "address"
        },
        {
          "internalType": "uint256",
          "name": "id",
          "type": "uint256"
        }
      ],
      "name": "balanceOf",
      "outputs": [
        {
          "internalType": "uint256",
          "name": "",
          "type": "uint256"
        }
      ],
      "stateMutability": "view",
      "type": "function"
    },
    {
      "inputs": [
        {
          "internalType": "address[]",
          "name": "accounts",
          "type": "address[]"
        },
        {
          "internalType": "uint256[]",
          "name": "ids",
          "type": "uint256[]"
        }
      ],
      "name": "balanceOfBatch",
      "outputs": [
        {
          "internalType": "uint256[]",
          "name": "",
          "type": "uint256[]"
        }
      ],
      "stateMutability": "view",
      "type": "function"
    },
    {
      "inputs": [
        {
          "internalType": "address",
          "name": "account",
          "type": "address"
        },
        {
          "internalType": "address",
          "name": "operator",
          "type": "address"
        }
      ],
      "name": "isApprovedForAll",
      "outputs": [
        {
          "internalType": "bool",
          "name": "",
          "type": "bool"
        }
      ],
      "stateMutability": "view",
      "type": "function"
    },
    {
      "inputs": [
        {
          "internalType": "address",
          "name": "from",
          "type": "address"
        },
        {
          "internalType": "address",
          "name": "to",
          "type": "address"
        },
        {
          "internalType": "uint256[]",
          "name": "ids",
          "type": "uint256[]"
        },
        {
          "internalType": "uint256[]",
          "name": "amounts",
          "type": "uint256[]"
        },
        {
          "internalType": "bytes",
          "name": "data",
          "type": "bytes"
        }
      ],
      "name": "safeBatchTransferFrom",
      "outputs": [],
      "stateMutability": "nonpayable",
      "type": "function"
    },
    {
      "inputs": [
        {
          "internalType": "address",
          "name": "from",
          "type": "address"
        },
        {
          "internalType": "address",
          "name": "to",
          "type": "address"
        },
        {
          "internalType": "uint256",
          "name": "id",
          "type": "uint256"
        },
        {
          "internalType": "uint256",
          "name": "amount",
          "type": "uint256"
        },
        {
          "internalType": "bytes",
          "name": "data",
          "type": "bytes"
        }
      ],
      "name": "safeTransferFrom",
      "outputs": [],
      "stateMutability": "nonpayable",
      "type": "function"
    },
    {
      "inputs": [
        {
          "internalType": "address",
          "name": "operator",
          "type": "address"
        },
        {
          "internalType": "bool",
          "name": "approved",
          "type": "bool"
        }
      ],
      "name": "setApprovalForAll",
      "outputs": [],
      "stateMutability": "nonpayable",
      "type": "function"
    },
    {
      "inputs": [
        {
          "internalType": "bytes4",
          "name": "interfaceId",
          "type": "bytes4"
        }
      ],
      "name": "supportsInterface",
      "outputs": [
        {
          "internalType": "bool",
          "name": "",
          "type": "bool"
        }
      ],
      "stateMutability": "view",
      "type": "function"
    },
    {
      "inputs": [
        {
          "internalType": "uint256",
          "name": "",
          "type": "uint256"
        }
      ],
      "name": "uri",
      "outputs": [
        {
          "internalType": "string",
          "name": "",
          "type": "string"
        }
      ],
      "stateMutability": "view",
      "type": "function"
    },
    {
      "inputs": [
        {
          "internalType": "address",
          "name": "to",
          "type": "address"
        },
        {
          "internalType": "uint256",
          "name": "id",
          "type": "uint256"
        },
        {
          "internalType": "uint256",
          "name": "amount",
          "type": "uint256"
        },
        {
          "internalType": "bytes",
          "name": "data",
          "type": "bytes"
        }
      ],
      "name": "mint",
      "outputs": [],
      "stateMutability": "nonpayable",
      "type": "function"
    },
    {
      "inputs": [
        {
          "internalType": "address",
          "name": "to",
          "type": "address"
        },
        {
          "internalType": "uint256[]",
          "name": "ids",
          "type": "uint256[]"
        },
        {
          "internalType": "uint256[]",
          "name": "amounts",
          "type": "uint256[]"
        },
        {
          "internalType": "bytes",
          "name": "data",
          "type": "bytes"
        }
      ],
      "name": "mintBatch",
      "outputs": [],
      "stateMutability": "nonpayable",
      "type": "function"
    }
  ],
  "bytecode": "0x60806040523480156200001157600080fd5b506040518060200160405280600081525062000033816200003a60201b60201c565b506200016b565b80600290805190602001906200005292919062000056565b5050565b828054620000649062000106565b90600052602060002090601f016020900481019282620000885760008555620000d4565b82601f10620000a357805160ff1916838001178555620000d4565b82800160010185558215620000d4579182015b82811115620000d3578251825591602001919060010190620000b6565b5b509050620000e39190620000e7565b5090565b5b8082111562000102576000816000905550600101620000e8565b5090565b600060028204905060018216806200011f57607f821691505b602082108114156200013657620001356200013c565b5b50919050565b7f4e487b7100000000000000000000000000000000000000000000000000000000600052602260045260246000fd5b612b92806200017b6000396000f3fe608060405234801561001057600080fd5b506004361061009d5760003560e01c80634e1273f4116100665780634e1273f41461016a578063731133e91461019a578063a22cb465146101b6578063e985e9c5146101d2578063f242432a146102025761009d565b8062fdd58e146100a257806301ffc9a7146100d25780630e89341c146101025780631f7fdffa146101325780632eb2c2d61461014e575b600080fd5b6100bc60048036038101906100b79190611cce565b61021e565b6040516100c991906126aa565b60405180910390f35b6100ec60048036038101906100e79190611df1565b6102e7565b6040516100f9919061250d565b60405180910390f35b61011c60048036038101906101179190611e43565b6103c9565b6040516101299190612528565b60405180910390f35b61014c60048036038101906101479190611be7565b61045d565b005b61016860048036038101906101639190611a99565b61046f565b005b610184600480360381019061017f9190611d85565b610510565b60405161019191906124b4565b60405180910390f35b6101b460048036038101906101af9190611d0a565b6106c1565b005b6101d060048036038101906101cb9190611c92565b6106d3565b005b6101ec60048036038101906101e79190611a5d565b6106e9565b6040516101f9919061250d565b60405180910390f35b61021c60048036038101906102179190611b58565b61077d565b005b60008073ffffffffffffffffffffffffffffffffffffffff168373ffffffffffffffffffffffffffffffffffffffff16141561028f576040517f08c379a00000000000000000000000000000000000000000000000000000000081526004016102869061258a565b60405180910390fd5b60008083815260200190815260200160002060008473ffffffffffffffffffffffffffffffffffffffff1673ffffffffffffffffffffffffffffffffffffffff16815260200190815260200160002054905092915050565b60007fd9b67a26000000000000000000000000000000000000000000000000000000007bffffffffffffffffffffffffffffffffffffffffffffffffffffffff1916827bffffffffffffffffffffffffffffffffffffffffffffffffffffffff191614806103b257507f0e89341c000000000000000000000000000000000000000000000000000000007bffffffffffffffffffffffffffffffffffffffffffffffffffffffff1916827bffffffffffffffffffffffffffffffffffffffffffffffffffffffff1916145b806103c257506103c18261081e565b5b9050919050565b6060600280546103d890612924565b80601f016020809104026020016040519081016040528092919081815260200182805461040490612924565b80156104515780601f1061042657610100808354040283529160200191610451565b820191906000526020600020905b81548152906001019060200180831161043457829003601f168201915b50505050509050919050565b61046984848484610888565b50505050565b610477610af2565b73ffffffffffffffffffffffffffffffffffffffff168573ffffffffffffffffffffffffffffffffffffffff1614806104bd57506104bc856104b7610af2565b6106e9565b5b6104fc576040517f08c379a00000000000000000000000000000000000000000000000000000000081526004016104f3906125ea565b60405180910390fd5b6105098585858585610afa565b5050505050565b60608151835114610556576040517f08c379a000000000000000000000000000000000000000000000000000000000815260040161054d9061264a565b60405180910390fd5b6000835167ffffffffffffffff811115610599577f4e487b7100000000000000000000000000000000000000000000000000000000600052604160045260246000fd5b6040519080825280602002602001820160405280156105c75781602001602082028036833780820191505090505b50905060005b84518110156106b657610660858281518110610612577f4e487b7100000000000000000000000000000000000000000000000000000000600052603260045260246000fd5b6020026020010151858381518110610653577f4e487b7100000000000000000000000000000000000000000000000000000000600052603260045260246000fd5b602002602001015161021e565b828281518110610699577f4e487b7100000000000000000000000000000000000000000000000000000000600052603260045260246000fd5b602002602001018181525050806106af90612956565b90506105cd565b508091505092915050565b6106cd84848484610e5a565b50505050565b6106e56106de610af2565b8383610ff0565b5050565b6000600160008473ffffffffffffffffffffffffffffffffffffffff1673ffffffffffffffffffffffffffffffffffffffff16815260200190815260200160002060008373ffffffffffffffffffffffffffffffffffffffff1673ffffffffffffffffffffffffffffffffffffffff16815260200190815260200160002060009054906101000a900460ff16905092915050565b610785610af2565b73ffffffffffffffffffffffffffffffffffffffff168573ffffffffffffffffffffffffffffffffffffffff1614806107cb57506107ca856107c5610af2565b6106e9565b5b61080a576040517f08c379a0000000000000000000000000000000000000000000000000000000008152600401610801906125aa565b60405180910390fd5b610817858585858561115d565b5050505050565b60007f01ffc9a7000000000000000000000000000000000000000000000000000000007bffffffffffffffffffffffffffffffffffffffffffffffffffffffff1916827bffffffffffffffffffffffffffffffffffffffffffffffffffffffff1916149050919050565b600073ffffffffffffffffffffffffffffffffffffffff168473ffffffffffffffffffffffffffffffffffffffff1614156108f8576040517f08c379a00000000000000000000000000000000000000000000000000000000081526004016108ef9061268a565b60405180910390fd5b815183511461093c576040517f08c379a00000000000000000000000000000000000000000000000000000000081526004016109339061266a565b60405180910390fd5b6000610946610af2565b9050610957816000878787876113df565b60005b8451811015610a5c5783818151811061099c577f4e487b7100000000000000000000000000000000000000000000000000000000600052603260045260246000fd5b60200260200101516000808784815181106109e0577f4e487b7100000000000000000000000000000000000000000000000000000000600052603260045260246000fd5b6020026020010151815260200190815260200160002060008873ffffffffffffffffffffffffffffffffffffffff1673ffffffffffffffffffffffffffffffffffffffff1681526020019081526020016000206000828254610a429190612818565b925050819055508080610a5490612956565b91505061095a565b508473ffffffffffffffffffffffffffffffffffffffff16600073ffffffffffffffffffffffffffffffffffffffff168273ffffffffffffffffffffffffffffffffffffffff167f4a39dc06d4c0dbc64b70af90fd698a233a518aa5d07e595d983b8c0526c8f7fb8787604051610ad49291906124d6565b60405180910390a4610aeb816000878787876113e7565b5050505050565b600033905090565b8151835114610b3e576040517f08c379a0000000000000000000000000000000000000000000000000000000008152600401610b359061266a565b60405180910390fd5b600073ffffffffffffffffffffffffffffffffffffffff168473ffffffffffffffffffffffffffffffffffffffff161415610bae576040517f08c379a0000000000000000000000000000000000000000000000000000000008152600401610ba5906125ca565b60405180910390fd5b6000610bb8610af2565b9050610bc88187878787876113df565b60005b8451811015610dc5576000858281518110610c0f577f4e487b7100000000000000000000000000000000000000000000000000000000600052603260045260246000fd5b602002602001015190506000858381518110610c54577f4e487b7100000000000000000000000000000000000000000000000000000000600052603260045260246000fd5b60200260200101519050600080600084815260200190815260200160002060008b73ffffffffffffffffffffffffffffffffffffffff1673ffffffffffffffffffffffffffffffffffffffff16815260200190815260200160002054905081811015610cf5576040517f08c379a0000000000000000000000000000000000000000000000000000000008152600401610cec9061260a565b60405180910390fd5b81810360008085815260200190815260200160002060008c73ffffffffffffffffffffffffffffffffffffffff1673ffffffffffffffffffffffffffffffffffffffff168152602001908152602001600020819055508160008085815260200190815260200160002060008b73ffffffffffffffffffffffffffffffffffffffff1673ffffffffffffffffffffffffffffffffffffffff1681526020019081526020016000206000828254610daa9190612818565b9250508190555050505080610dbe90612956565b9050610bcb565b508473ffffffffffffffffffffffffffffffffffffffff168673ffffffffffffffffffffffffffffffffffffffff168273ffffffffffffffffffffffffffffffffffffffff167f4a39dc06d4c0dbc64b70af90fd698a233a518aa5d07e595d983b8c0526c8f7fb8787604051610e3c9291906124d6565b60405180910390a4610e528187878787876113e7565b505050505050565b600073ffffffffffffffffffffffffffffffffffffffff168473ffffffffffffffffffffffffffffffffffffffff161415610eca576040517f08c379a0000000000000000000000000000000000000000000000000000000008152600401610ec19061268a565b60405180910390fd5b6000610ed4610af2565b9050610ef581600087610ee6886115b7565b610eef886115b7565b876113df565b8260008086815260200190815260200160002060008773ffffffffffffffffffffffffffffffffffffffff1673ffffffffffffffffffffffffffffffffffffffff1681526020019081526020016000206000828254610f549190612818565b925050819055508473ffffffffffffffffffffffffffffffffffffffff16600073ffffffffffffffffffffffffffffffffffffffff168273ffffffffffffffffffffffffffffffffffffffff167fc3d58168c5ae7397731d063d5bbf3d657854427343f4c083240f7aacaa2d0f628787604051610fd29291906126c5565b60405180910390a4610fe98160008787878761167d565b5050505050565b8173ffffffffffffffffffffffffffffffffffffffff168373ffffffffffffffffffffffffffffffffffffffff16141561105f576040517f08c379a00000000000000000000000000000000000000000000000000000000081526004016110569061262a565b60405180910390fd5b80600160008573ffffffffffffffffffffffffffffffffffffffff1673ffffffffffffffffffffffffffffffffffffffff16815260200190815260200160002060008473ffffffffffffffffffffffffffffffffffffffff1673ffffffffffffffffffffffffffffffffffffffff16815260200190815260200160002060006101000a81548160ff0219169083151502179055508173ffffffffffffffffffffffffffffffffffffffff168373ffffffffffffffffffffffffffffffffffffffff167f17307eab39ab6107e8899845ad3d59bd9653f200f220920489ca2b5937696c3183604051611150919061250d565b60405180910390a3505050565b600073ffffffffffffffffffffffffffffffffffffffff168473ffffffffffffffffffffffffffffffffffffffff1614156111cd576040517f08c379a00000000000000000000000000000000000000000000000000000000081526004016111c4906125ca565b60405180910390fd5b60006111d7610af2565b90506111f78187876111e8886115b7565b6111f1886115b7565b876113df565b600080600086815260200190815260200160002060008873ffffffffffffffffffffffffffffffffffffffff1673ffffffffffffffffffffffffffffffffffffffff1681526020019081526020016000205490508381101561128e576040517f08c379a00000000000000000000000000000000000000000000000000000000081526004016112859061260a565b60405180910390fd5b83810360008087815260200190815260200160002060008973ffffffffffffffffffffffffffffffffffffffff1673ffffffffffffffffffffffffffffffffffffffff168152602001908152602001600020819055508360008087815260200190815260200160002060008873ffffffffffffffffffffffffffffffffffffffff1673ffffffffffffffffffffffffffffffffffffffff16815260200190815260200160002060008282546113439190612818565b925050819055508573ffffffffffffffffffffffffffffffffffffffff168773ffffffffffffffffffffffffffffffffffffffff168373ffffffffffffffffffffffffffffffffffffffff167fc3d58168c5ae7397731d063d5bbf3d657854427343f4c083240f7aacaa2d0f6288886040516113c09291906126c5565b60405180910390a46113d682888888888861167d565b50505050505050565b505050505050565b6114068473ffffffffffffffffffffffffffffffffffffffff1661184d565b156115af578373ffffffffffffffffffffffffffffffffffffffff1663bc197c8187878686866040518663ffffffff1660e01b815260040161144c9594939291906123f2565b602060405180830381600087803b15801561146657600080fd5b505af192505050801561149757506040513d601f19601f820116820180604052508101906114949190611e1a565b60015b611526576114a3612a4a565b806114ae57506114eb565b806040517f08c379a00000000000000000000000000000000000000000000000000000000081526004016114e29190612528565b60405180910390fd5b6040517f08c379a000000000000000000000000000000000000000000000000000000000815260040161151d9061254a565b60405180910390fd5b63bc197c8160e01b7bffffffffffffffffffffffffffffffffffffffffffffffffffffffff1916817bffffffffffffffffffffffffffffffffffffffffffffffffffffffff1916146115ad576040517f08c379a00000000000000000000000000000000000000000000000000000000081526004016115a49061256a565b60405180910390fd5b505b505050505050565b60606000600167ffffffffffffffff8111156115fc577f4e487b7100000000000000000000000000000000000000000000000000000000600052604160045260246000fd5b60405190808252806020026020018201604052801561162a5781602001602082028036833780820191505090505b5090508281600081518110611668577f4e487b7100000000000000000000000000000000000000000000000000000000600052603260045260246000fd5b60200260200101818152505080915050919050565b61169c8473ffffffffffffffffffffffffffffffffffffffff1661184d565b15611845578373ffffffffffffffffffffffffffffffffffffffff1663f23a6e6187878686866040518663ffffffff1660e01b81526004016116e295949392919061245a565b602060405180830381600087803b1580156116fc57600080fd5b505af192505050801561172d57506040513d601f19601f8201168201806040525081019061172a9190611e1a565b60015b6117bc57611739612a4a565b806117445750611781565b806040517f08c379a00000000000000000000000000000000000000000000000000000000081526004016117789190612528565b60405180910390fd5b6040517f08c379a00000000000000000000000000000000000000000000000000000000081526004016117b39061254a565b60405180910390fd5b63f23a6e6160e01b7bffffffffffffffffffffffffffffffffffffffffffffffffffffffff1916817bffffffffffffffffffffffffffffffffffffffffffffffffffffffff191614611843576040517f08c379a000000000000000000000000000000000000000000000000000000000815260040161183a9061256a565b60405180910390fd5b505b505050505050565b600080823b905060008111915050919050565b600061187361186e8461271f565b6126ee565b9050808382526020820190508285602086028201111561189257600080fd5b60005b858110156118c257816118a88882611976565b845260208401935060208301925050600181019050611895565b5050509392505050565b60006118df6118da8461274b565b6126ee565b905080838252602082019050828560208602820111156118fe57600080fd5b60005b8581101561192e57816119148882611a48565b845260208401935060208301925050600181019050611901565b5050509392505050565b600061194b61194684612777565b6126ee565b90508281526020810184848401111561196357600080fd5b61196e8482856128e2565b509392505050565b60008135905061198581612b00565b92915050565b600082601f83011261199c57600080fd5b81356119ac848260208601611860565b91505092915050565b600082601f8301126119c657600080fd5b81356119d68482602086016118cc565b91505092915050565b6000813590506119ee81612b17565b92915050565b600081359050611a0381612b2e565b92915050565b600081519050611a1881612b2e565b92915050565b600082601f830112611a2f57600080fd5b8135611a3f848260208601611938565b91505092915050565b600081359050611a5781612b45565b92915050565b60008060408385031215611a7057600080fd5b6000611a7e85828601611976565b9250506020611a8f85828601611976565b9150509250929050565b600080600080600060a08688031215611ab157600080fd5b6000611abf88828901611976565b9550506020611ad088828901611976565b945050604086013567ffffffffffffffff811115611aed57600080fd5b611af9888289016119b5565b935050606086013567ffffffffffffffff811115611b1657600080fd5b611b22888289016119b5565b925050608086013567ffffffffffffffff811115611b3f57600080fd5b611b4b88828901611a1e565b9150509295509295909350565b600080600080600060a08688031215611b7057600080fd5b6000611b7e88828901611976565b9550506020611b8f88828901611976565b9450506040611ba088828901611a48565b9350506060611bb188828901611a48565b925050608086013567ffffffffffffffff811115611bce57600080fd5b611bda88828901611a1e565b9150509295509295909350565b60008060008060808587031215611bfd57600080fd5b6000611c0b87828801611976565b945050602085013567ffffffffffffffff811115611c2857600080fd5b611c34878288016119b5565b935050604085013567ffffffffffffffff811115611c5157600080fd5b611c5d878288016119b5565b925050606085013567ffffffffffffffff811115611c7a57600080fd5b611c8687828801611a1e565b91505092959194509250565b60008060408385031215611ca557600080fd5b6000611cb385828601611976565b9250506020611cc4858286016119df565b9150509250929050565b60008060408385031215611ce157600080fd5b6000611cef85828601611976565b9250506020611d0085828601611a48565b9150509250929050565b60008060008060808587031215611d2057600080fd5b6000611d2e87828801611976565b9450506020611d3f87828801611a48565b9350506040611d5087828801611a48565b925050606085013567ffffffffffffffff811115611d6d57600080fd5b611d7987828801611a1e565b91505092959194509250565b60008060408385031215611d9857600080fd5b600083013567ffffffffffffffff811115611db257600080fd5b611dbe8582860161198b565b925050602083013567ffffffffffffffff811115611ddb57600080fd5b611de7858286016119b5565b9150509250929050565b600060208284031215611e0357600080fd5b6000611e11848285016119f4565b91505092915050565b600060208284031215611e2c57600080fd5b6000611e3a84828501611a09565b91505092915050565b600060208284031215611e5557600080fd5b6000611e6384828501611a48565b91505092915050565b6000611e7883836123d4565b60208301905092915050565b611e8d8161286e565b82525050565b6000611e9e826127b7565b611ea881856127e5565b9350611eb3836127a7565b8060005b83811015611ee4578151611ecb8882611e6c565b9750611ed6836127d8565b925050600181019050611eb7565b5085935050505092915050565b611efa81612880565b82525050565b6000611f0b826127c2565b611f1581856127f6565b9350611f258185602086016128f1565b611f2e81612a2c565b840191505092915050565b6000611f44826127cd565b611f4e8185612807565b9350611f5e8185602086016128f1565b611f6781612a2c565b840191505092915050565b6000611f7f603483612807565b91507f455243313135353a207472616e7366657220746f206e6f6e204552433131353560008301527f526563656976657220696d706c656d656e7465720000000000000000000000006020830152604082019050919050565b6000611fe5602883612807565b91507f455243313135353a204552433131353552656365697665722072656a6563746560008301527f6420746f6b656e730000000000000000000000000000000000000000000000006020830152604082019050919050565b600061204b602b83612807565b91507f455243313135353a2062616c616e636520717565727920666f7220746865207a60008301527f65726f20616464726573730000000000000000000000000000000000000000006020830152604082019050919050565b60006120b1602983612807565b91507f455243313135353a2063616c6c6572206973206e6f74206f776e6572206e6f7260008301527f20617070726f76656400000000000000000000000000000000000000000000006020830152604082019050919050565b6000612117602583612807565b91507f455243313135353a207472616e7366657220746f20746865207a65726f20616460008301527f64726573730000000000000000000000000000000000000000000000000000006020830152604082019050919050565b600061217d603283612807565b91507f455243313135353a207472616e736665722063616c6c6572206973206e6f742060008301527f6f776e6572206e6f7220617070726f76656400000000000000000000000000006020830152604082019050919050565b60006121e3602a83612807565b91507f455243313135353a20696e73756666696369656e742062616c616e636520666f60008301527f72207472616e73666572000000000000000000000000000000000000000000006020830152604082019050919050565b6000612249602983612807565b91507f455243313135353a2073657474696e6720617070726f76616c2073746174757360008301527f20666f722073656c6600000000000000000000000000000000000000000000006020830152604082019050919050565b60006122af602983612807565b91507f455243313135353a206163636f756e747320616e6420696473206c656e67746860008301527f206d69736d6174636800000000000000000000000000000000000000000000006020830152604082019050919050565b6000612315602883612807565b91507f455243313135353a2069647320616e6420616d6f756e7473206c656e6774682060008301527f6d69736d617463680000000000000000000000000000000000000000000000006020830152604082019050919050565b600061237b602183612807565b91507f455243313135353a206d696e7420746f20746865207a65726f2061646472657360008301527f73000000000000000000000000000000000000000000000000000000000000006020830152604082019050919050565b6123dd816128d8565b82525050565b6123ec816128d8565b82525050565b600060a0820190506124076000830188611e84565b6124146020830187611e84565b81810360408301526124268186611e93565b9050818103606083015261243a8185611e93565b9050818103608083015261244e8184611f00565b90509695505050505050565b600060a08201905061246f6000830188611e84565b61247c6020830187611e84565b61248960408301866123e3565b61249660608301856123e3565b81810360808301526124a88184611f00565b90509695505050505050565b600060208201905081810360008301526124ce8184611e93565b905092915050565b600060408201905081810360008301526124f08185611e93565b905081810360208301526125048184611e93565b90509392505050565b60006020820190506125226000830184611ef1565b92915050565b600060208201905081810360008301526125428184611f39565b905092915050565b6000602082019050818103600083015261256381611f72565b9050919050565b6000602082019050818103600083015261258381611fd8565b9050919050565b600060208201905081810360008301526125a38161203e565b9050919050565b600060208201905081810360008301526125c3816120a4565b9050919050565b600060208201905081810360008301526125e38161210a565b9050919050565b6000602082019050818103600083015261260381612170565b9050919050565b60006020820190508181036000830152612623816121d6565b9050919050565b600060208201905081810360008301526126438161223c565b9050919050565b60006020820190508181036000830152612663816122a2565b9050919050565b6000602082019050818103600083015261268381612308565b9050919050565b600060208201905081810360008301526126a38161236e565b9050919050565b60006020820190506126bf60008301846123e3565b92915050565b60006040820190506126da60008301856123e3565b6126e760208301846123e3565b9392505050565b6000604051905081810181811067ffffffffffffffff82111715612715576127146129fd565b5b8060405250919050565b600067ffffffffffffffff82111561273a576127396129fd565b5b602082029050602081019050919050565b600067ffffffffffffffff821115612766576127656129fd565b5b602082029050602081019050919050565b600067ffffffffffffffff821115612792576127916129fd565b5b601f19601f8301169050602081019050919050565b6000819050602082019050919050565b600081519050919050565b600081519050919050565b600081519050919050565b6000602082019050919050565b600082825260208201905092915050565b600082825260208201905092915050565b600082825260208201905092915050565b6000612823826128d8565b915061282e836128d8565b9250827fffffffffffffffffffffffffffffffffffffffffffffffffffffffffffffffff038211156128635761286261299f565b5b828201905092915050565b6000612879826128b8565b9050919050565b60008115159050919050565b60007fffffffff0000000000000000000000000000000000000000000000000000000082169050919050565b600073ffffffffffffffffffffffffffffffffffffffff82169050919050565b6000819050919050565b82818337600083830152505050565b60005b8381101561290f5780820151818401526020810190506128f4565b8381111561291e576000848401525b50505050565b6000600282049050600182168061293c57607f821691505b602082108114156129505761294f6129ce565b5b50919050565b6000612961826128d8565b91507fffffffffffffffffffffffffffffffffffffffffffffffffffffffffffffffff8214156129945761299361299f565b5b600182019050919050565b7f4e487b7100000000000000000000000000000000000000000000000000000000600052601160045260246000fd5b7f4e487b7100000000000000000000000000000000000000000000000000000000600052602260045260246000fd5b7f4e487b7100000000000000000000000000000000000000000000000000000000600052604160045260246000fd5b6000601f19601f8301169050919050565b60008160e01c9050919050565b600060443d1015612a5a57612afd565b60046000803e612a6b600051612a3d565b6308c379a08114612a7c5750612afd565b60405160043d036004823e80513d602482011167ffffffffffffffff82111715612aa857505050612afd565b808201805167ffffffffffffffff811115612ac7575050505050612afd565b8060208301013d8501811115612ae257505050505050612afd565b612aeb82612a2c565b60208401016040528296505050505050505b90565b612b098161286e565b8114612b1457600080fd5b50565b612b2081612880565b8114612b2b57600080fd5b50565b612b378161288c565b8114612b4257600080fd5b50565b612b4e816128d8565b8114612b5957600080fd5b5056fea264697066735822122003111886a8bd9232273e54e8d6156dfc1471939dac410353f73b970044c0bdb464736f6c63430008000033",
  "immutableReferences": {},
  "source": "pragma solidity ^0.8.0;\n\nimport \"../node_modules/@openzeppelin/contracts/token/ERC1155/ERC1155.sol\";\n\ncontract GameItems is ERC1155 {\n    constructor() ERC1155(\"\") {}\n\n    function mint(\n        address to,\n        uint256 id,\n        uint256 amount,\n        bytes memory data\n    ) public virtual {\n        _mint(to, id, amount, data);\n    }\n\n    function mintBatch(\n        address to,\n        uint256[] memory ids,\n        uint256[] memory amounts,\n        bytes memory data\n    ) public virtual {\n        _mintBatch(to, ids, amounts, data);\n    }\n}\n",
  "sourcePath": "/mnt/c/Users/alecs/dev/rusty-eth-cqrs/contracts/contracts/Tokens.sol",
  "compiler": {
    "name": "solc",
    "version": "0.8.0+commit.c7dfd78e.Emscripten.clang"
  },
  "schemaVersion": "3.4.3",
  "updatedAt": "2022-01-30T02:44:52.074Z",
  "devdoc": {
    "kind": "dev",
    "methods": {
      "balanceOf(address,uint256)": {
        "details": "See {IERC1155-balanceOf}. Requirements: - `account` cannot be the zero address."
      },
      "balanceOfBatch(address[],uint256[])": {
        "details": "See {IERC1155-balanceOfBatch}. Requirements: - `accounts` and `ids` must have the same length."
      },
      "isApprovedForAll(address,address)": {
        "details": "See {IERC1155-isApprovedForAll}."
      },
      "safeBatchTransferFrom(address,address,uint256[],uint256[],bytes)": {
        "details": "See {IERC1155-safeBatchTransferFrom}."
      },
      "safeTransferFrom(address,address,uint256,uint256,bytes)": {
        "details": "See {IERC1155-safeTransferFrom}."
      },
      "setApprovalForAll(address,bool)": {
        "details": "See {IERC1155-setApprovalForAll}."
      },
      "supportsInterface(bytes4)": {
        "details": "See {IERC165-supportsInterface}."
      },
      "uri(uint256)": {
        "details": "See {IERC1155MetadataURI-uri}. This implementation returns the same URI for *all* token types. It relies on the token type ID substitution mechanism https://eips.ethereum.org/EIPS/eip-1155#metadata[defined in the EIP]. Clients calling this function must replace the `\\{id\\}` substring with the actual token type ID."
      }
    },
    "version": 1
  },
  "userdoc": {
    "kind": "user",
    "methods": {},
    "version": 1
  }
}